{
  "contracts/BridgeBase.sol": {
    "BridgeBase": {
      "abi": [
        {
          "inputs": [
            {
              "internalType": "address",
              "name": "_token",
              "type": "address"
            }
          ],
          "stateMutability": "nonpayable",
          "type": "constructor"
        },
        {
          "anonymous": false,
          "inputs": [
            {
              "indexed": false,
              "internalType": "address",
              "name": "from",
              "type": "address"
            },
            {
              "indexed": false,
              "internalType": "address",
              "name": "to",
              "type": "address"
            },
            {
              "indexed": false,
              "internalType": "uint256",
              "name": "amount",
              "type": "uint256"
            },
            {
              "indexed": false,
              "internalType": "uint256",
              "name": "date",
              "type": "uint256"
            },
            {
              "indexed": false,
              "internalType": "uint256",
              "name": "nonce",
              "type": "uint256"
            },
            {
              "indexed": true,
              "internalType": "enum BridgeBase.Step",
              "name": "step",
              "type": "uint8"
            }
          ],
          "name": "Transfer",
          "type": "event"
        },
        {
          "inputs": [],
          "name": "admin",
          "outputs": [
            {
              "internalType": "address",
              "name": "",
              "type": "address"
            }
          ],
          "stateMutability": "view",
          "type": "function"
        },
        {
          "inputs": [
            {
              "internalType": "address",
              "name": "to",
              "type": "address"
            },
            {
              "internalType": "uint256",
              "name": "amount",
              "type": "uint256"
            }
          ],
          "name": "burn",
          "outputs": [],
          "stateMutability": "nonpayable",
          "type": "function"
        },
        {
          "inputs": [
            {
              "internalType": "address",
              "name": "to",
              "type": "address"
            },
            {
              "internalType": "uint256",
              "name": "amount",
              "type": "uint256"
            },
            {
              "internalType": "uint256",
              "name": "otherChainNonce",
              "type": "uint256"
            }
          ],
          "name": "mint",
          "outputs": [],
          "stateMutability": "nonpayable",
          "type": "function"
        },
        {
          "inputs": [],
          "name": "nonce",
          "outputs": [
            {
              "internalType": "uint256",
              "name": "",
              "type": "uint256"
            }
          ],
          "stateMutability": "view",
          "type": "function"
        },
        {
          "inputs": [
            {
              "internalType": "uint256",
              "name": "",
              "type": "uint256"
            }
          ],
          "name": "processedNonces",
          "outputs": [
            {
              "internalType": "bool",
              "name": "",
              "type": "bool"
            }
          ],
          "stateMutability": "view",
          "type": "function"
        },
        {
          "inputs": [],
          "name": "token",
          "outputs": [
            {
              "internalType": "contract IToken",
              "name": "",
              "type": "address"
            }
          ],
          "stateMutability": "view",
          "type": "function"
        }
      ],
      "devdoc": {
        "kind": "dev",
        "methods": {},
        "version": 1
      },
      "evm": {
        "bytecode": {
          "linkReferences": {},
          "object": "608060405234801561001057600080fd5b5060405161051638038061051683398101604081905261002f91610062565b60008054336001600160a01b031991821617909155600180549091166001600160a01b0392909216919091179055610092565b60006020828403121561007457600080fd5b81516001600160a01b038116811461008b57600080fd5b9392505050565b610475806100a16000396000f3fe608060405234801561001057600080fd5b50600436106100725760003560e01c8063affed0e011610050578063affed0e0146100d7578063f851a440146100ee578063fc0c546a1461011957600080fd5b8063156e29f61461007757806391dae5191461008c5780639dc29fac146100c4575b600080fd5b61008a6100853660046103c9565b61012c565b005b6100af61009a3660046103fc565b60036020526000908152604090205460ff1681565b60405190151581526020015b60405180910390f35b61008a6100d2366004610415565b6102cf565b6100e060025481565b6040519081526020016100bb565b600054610101906001600160a01b031681565b6040516001600160a01b0390911681526020016100bb565b600154610101906001600160a01b031681565b6000546001600160a01b0316331461018b5760405162461bcd60e51b815260206004820152600a60248201527f6f6e6c792061646d696e0000000000000000000000000000000000000000000060448201526064015b60405180910390fd5b60008181526003602052604090205460ff16156101ea5760405162461bcd60e51b815260206004820152601a60248201527f7472616e7366657220616c72656164792070726f6365737365640000000000006044820152606401610182565b60008181526003602052604090819020805460ff191660019081179091555490516340c10f1960e01b81526001600160a01b03858116600483015260248201859052909116906340c10f1990604401600060405180830381600087803b15801561025357600080fd5b505af1158015610267573d6000803e3d6000fd5b5060019250610274915050565b604080513381526001600160a01b0386166020820152908101849052426060820152608081018390527f27757542a5e1b9e8cef80f584e094d4eb63b9802f355c61b3640b71b618d5c8e9060a00160405180910390a2505050565b600154604051632770a7eb60e21b8152336004820152602481018390526001600160a01b0390911690639dc29fac90604401600060405180830381600087803b15801561031b57600080fd5b505af115801561032f573d6000803e3d6000fd5b506000925061033c915050565b600254604080513381526001600160a01b03861660208201528082018590524260608201526080810192909252517f27757542a5e1b9e8cef80f584e094d4eb63b9802f355c61b3640b71b618d5c8e9181900360a00190a2600280549060006103a48361043f565b91905055505050565b80356001600160a01b03811681146103c457600080fd5b919050565b6000806000606084860312156103de57600080fd5b6103e7846103ad565b95602085013595506040909401359392505050565b60006020828403121561040e57600080fd5b5035919050565b6000806040838503121561042857600080fd5b610431836103ad565b946020939093013593505050565b600060001982141561046157634e487b7160e01b600052601160045260246000fd5b506001019056fea164736f6c634300080a000a",
          "opcodes": "PUSH1 0x80 PUSH1 0x40 MSTORE CALLVALUE DUP1 ISZERO PUSH2 0x10 JUMPI PUSH1 0x0 DUP1 REVERT JUMPDEST POP PUSH1 0x40 MLOAD PUSH2 0x516 CODESIZE SUB DUP1 PUSH2 0x516 DUP4 CODECOPY DUP2 ADD PUSH1 0x40 DUP2 SWAP1 MSTORE PUSH2 0x2F SWAP2 PUSH2 0x62 JUMP JUMPDEST PUSH1 0x0 DUP1 SLOAD CALLER PUSH1 0x1 PUSH1 0x1 PUSH1 0xA0 SHL SUB NOT SWAP2 DUP3 AND OR SWAP1 SWAP2 SSTORE PUSH1 0x1 DUP1 SLOAD SWAP1 SWAP2 AND PUSH1 0x1 PUSH1 0x1 PUSH1 0xA0 SHL SUB SWAP3 SWAP1 SWAP3 AND SWAP2 SWAP1 SWAP2 OR SWAP1 SSTORE PUSH2 0x92 JUMP JUMPDEST PUSH1 0x0 PUSH1 0x20 DUP3 DUP5 SUB SLT ISZERO PUSH2 0x74 JUMPI PUSH1 0x0 DUP1 REVERT JUMPDEST DUP2 MLOAD PUSH1 0x1 PUSH1 0x1 PUSH1 0xA0 SHL SUB DUP2 AND DUP2 EQ PUSH2 0x8B JUMPI PUSH1 0x0 DUP1 REVERT JUMPDEST SWAP4 SWAP3 POP POP POP JUMP JUMPDEST PUSH2 0x475 DUP1 PUSH2 0xA1 PUSH1 0x0 CODECOPY PUSH1 0x0 RETURN INVALID PUSH1 0x80 PUSH1 0x40 MSTORE CALLVALUE DUP1 ISZERO PUSH2 0x10 JUMPI PUSH1 0x0 DUP1 REVERT JUMPDEST POP PUSH1 0x4 CALLDATASIZE LT PUSH2 0x72 JUMPI PUSH1 0x0 CALLDATALOAD PUSH1 0xE0 SHR DUP1 PUSH4 0xAFFED0E0 GT PUSH2 0x50 JUMPI DUP1 PUSH4 0xAFFED0E0 EQ PUSH2 0xD7 JUMPI DUP1 PUSH4 0xF851A440 EQ PUSH2 0xEE JUMPI DUP1 PUSH4 0xFC0C546A EQ PUSH2 0x119 JUMPI PUSH1 0x0 DUP1 REVERT JUMPDEST DUP1 PUSH4 0x156E29F6 EQ PUSH2 0x77 JUMPI DUP1 PUSH4 0x91DAE519 EQ PUSH2 0x8C JUMPI DUP1 PUSH4 0x9DC29FAC EQ PUSH2 0xC4 JUMPI JUMPDEST PUSH1 0x0 DUP1 REVERT JUMPDEST PUSH2 0x8A PUSH2 0x85 CALLDATASIZE PUSH1 0x4 PUSH2 0x3C9 JUMP JUMPDEST PUSH2 0x12C JUMP JUMPDEST STOP JUMPDEST PUSH2 0xAF PUSH2 0x9A CALLDATASIZE PUSH1 0x4 PUSH2 0x3FC JUMP JUMPDEST PUSH1 0x3 PUSH1 0x20 MSTORE PUSH1 0x0 SWAP1 DUP2 MSTORE PUSH1 0x40 SWAP1 KECCAK256 SLOAD PUSH1 0xFF AND DUP2 JUMP JUMPDEST PUSH1 0x40 MLOAD SWAP1 ISZERO ISZERO DUP2 MSTORE PUSH1 0x20 ADD JUMPDEST PUSH1 0x40 MLOAD DUP1 SWAP2 SUB SWAP1 RETURN JUMPDEST PUSH2 0x8A PUSH2 0xD2 CALLDATASIZE PUSH1 0x4 PUSH2 0x415 JUMP JUMPDEST PUSH2 0x2CF JUMP JUMPDEST PUSH2 0xE0 PUSH1 0x2 SLOAD DUP2 JUMP JUMPDEST PUSH1 0x40 MLOAD SWAP1 DUP2 MSTORE PUSH1 0x20 ADD PUSH2 0xBB JUMP JUMPDEST PUSH1 0x0 SLOAD PUSH2 0x101 SWAP1 PUSH1 0x1 PUSH1 0x1 PUSH1 0xA0 SHL SUB AND DUP2 JUMP JUMPDEST PUSH1 0x40 MLOAD PUSH1 0x1 PUSH1 0x1 PUSH1 0xA0 SHL SUB SWAP1 SWAP2 AND DUP2 MSTORE PUSH1 0x20 ADD PUSH2 0xBB JUMP JUMPDEST PUSH1 0x1 SLOAD PUSH2 0x101 SWAP1 PUSH1 0x1 PUSH1 0x1 PUSH1 0xA0 SHL SUB AND DUP2 JUMP JUMPDEST PUSH1 0x0 SLOAD PUSH1 0x1 PUSH1 0x1 PUSH1 0xA0 SHL SUB AND CALLER EQ PUSH2 0x18B JUMPI PUSH1 0x40 MLOAD PUSH3 0x461BCD PUSH1 0xE5 SHL DUP2 MSTORE PUSH1 0x20 PUSH1 0x4 DUP3 ADD MSTORE PUSH1 0xA PUSH1 0x24 DUP3 ADD MSTORE PUSH32 0x6F6E6C792061646D696E00000000000000000000000000000000000000000000 PUSH1 0x44 DUP3 ADD MSTORE PUSH1 0x64 ADD JUMPDEST PUSH1 0x40 MLOAD DUP1 SWAP2 SUB SWAP1 REVERT JUMPDEST PUSH1 0x0 DUP2 DUP2 MSTORE PUSH1 0x3 PUSH1 0x20 MSTORE PUSH1 0x40 SWAP1 KECCAK256 SLOAD PUSH1 0xFF AND ISZERO PUSH2 0x1EA JUMPI PUSH1 0x40 MLOAD PUSH3 0x461BCD PUSH1 0xE5 SHL DUP2 MSTORE PUSH1 0x20 PUSH1 0x4 DUP3 ADD MSTORE PUSH1 0x1A PUSH1 0x24 DUP3 ADD MSTORE PUSH32 0x7472616E7366657220616C72656164792070726F636573736564000000000000 PUSH1 0x44 DUP3 ADD MSTORE PUSH1 0x64 ADD PUSH2 0x182 JUMP JUMPDEST PUSH1 0x0 DUP2 DUP2 MSTORE PUSH1 0x3 PUSH1 0x20 MSTORE PUSH1 0x40 SWAP1 DUP2 SWAP1 KECCAK256 DUP1 SLOAD PUSH1 0xFF NOT AND PUSH1 0x1 SWAP1 DUP2 OR SWAP1 SWAP2 SSTORE SLOAD SWAP1 MLOAD PUSH4 0x40C10F19 PUSH1 0xE0 SHL DUP2 MSTORE PUSH1 0x1 PUSH1 0x1 PUSH1 0xA0 SHL SUB DUP6 DUP2 AND PUSH1 0x4 DUP4 ADD MSTORE PUSH1 0x24 DUP3 ADD DUP6 SWAP1 MSTORE SWAP1 SWAP2 AND SWAP1 PUSH4 0x40C10F19 SWAP1 PUSH1 0x44 ADD PUSH1 0x0 PUSH1 0x40 MLOAD DUP1 DUP4 SUB DUP2 PUSH1 0x0 DUP8 DUP1 EXTCODESIZE ISZERO DUP1 ISZERO PUSH2 0x253 JUMPI PUSH1 0x0 DUP1 REVERT JUMPDEST POP GAS CALL ISZERO DUP1 ISZERO PUSH2 0x267 JUMPI RETURNDATASIZE PUSH1 0x0 DUP1 RETURNDATACOPY RETURNDATASIZE PUSH1 0x0 REVERT JUMPDEST POP PUSH1 0x1 SWAP3 POP PUSH2 0x274 SWAP2 POP POP JUMP JUMPDEST PUSH1 0x40 DUP1 MLOAD CALLER DUP2 MSTORE PUSH1 0x1 PUSH1 0x1 PUSH1 0xA0 SHL SUB DUP7 AND PUSH1 0x20 DUP3 ADD MSTORE SWAP1 DUP2 ADD DUP5 SWAP1 MSTORE TIMESTAMP PUSH1 0x60 DUP3 ADD MSTORE PUSH1 0x80 DUP2 ADD DUP4 SWAP1 MSTORE PUSH32 0x27757542A5E1B9E8CEF80F584E094D4EB63B9802F355C61B3640B71B618D5C8E SWAP1 PUSH1 0xA0 ADD PUSH1 0x40 MLOAD DUP1 SWAP2 SUB SWAP1 LOG2 POP POP POP JUMP JUMPDEST PUSH1 0x1 SLOAD PUSH1 0x40 MLOAD PUSH4 0x2770A7EB PUSH1 0xE2 SHL DUP2 MSTORE CALLER PUSH1 0x4 DUP3 ADD MSTORE PUSH1 0x24 DUP2 ADD DUP4 SWAP1 MSTORE PUSH1 0x1 PUSH1 0x1 PUSH1 0xA0 SHL SUB SWAP1 SWAP2 AND SWAP1 PUSH4 0x9DC29FAC SWAP1 PUSH1 0x44 ADD PUSH1 0x0 PUSH1 0x40 MLOAD DUP1 DUP4 SUB DUP2 PUSH1 0x0 DUP8 DUP1 EXTCODESIZE ISZERO DUP1 ISZERO PUSH2 0x31B JUMPI PUSH1 0x0 DUP1 REVERT JUMPDEST POP GAS CALL ISZERO DUP1 ISZERO PUSH2 0x32F JUMPI RETURNDATASIZE PUSH1 0x0 DUP1 RETURNDATACOPY RETURNDATASIZE PUSH1 0x0 REVERT JUMPDEST POP PUSH1 0x0 SWAP3 POP PUSH2 0x33C SWAP2 POP POP JUMP JUMPDEST PUSH1 0x2 SLOAD PUSH1 0x40 DUP1 MLOAD CALLER DUP2 MSTORE PUSH1 0x1 PUSH1 0x1 PUSH1 0xA0 SHL SUB DUP7 AND PUSH1 0x20 DUP3 ADD MSTORE DUP1 DUP3 ADD DUP6 SWAP1 MSTORE TIMESTAMP PUSH1 0x60 DUP3 ADD MSTORE PUSH1 0x80 DUP2 ADD SWAP3 SWAP1 SWAP3 MSTORE MLOAD PUSH32 0x27757542A5E1B9E8CEF80F584E094D4EB63B9802F355C61B3640B71B618D5C8E SWAP2 DUP2 SWAP1 SUB PUSH1 0xA0 ADD SWAP1 LOG2 PUSH1 0x2 DUP1 SLOAD SWAP1 PUSH1 0x0 PUSH2 0x3A4 DUP4 PUSH2 0x43F JUMP JUMPDEST SWAP2 SWAP1 POP SSTORE POP POP POP JUMP JUMPDEST DUP1 CALLDATALOAD PUSH1 0x1 PUSH1 0x1 PUSH1 0xA0 SHL SUB DUP2 AND DUP2 EQ PUSH2 0x3C4 JUMPI PUSH1 0x0 DUP1 REVERT JUMPDEST SWAP2 SWAP1 POP JUMP JUMPDEST PUSH1 0x0 DUP1 PUSH1 0x0 PUSH1 0x60 DUP5 DUP7 SUB SLT ISZERO PUSH2 0x3DE JUMPI PUSH1 0x0 DUP1 REVERT JUMPDEST PUSH2 0x3E7 DUP5 PUSH2 0x3AD JUMP JUMPDEST SWAP6 PUSH1 0x20 DUP6 ADD CALLDATALOAD SWAP6 POP PUSH1 0x40 SWAP1 SWAP5 ADD CALLDATALOAD SWAP4 SWAP3 POP POP POP JUMP JUMPDEST PUSH1 0x0 PUSH1 0x20 DUP3 DUP5 SUB SLT ISZERO PUSH2 0x40E JUMPI PUSH1 0x0 DUP1 REVERT JUMPDEST POP CALLDATALOAD SWAP2 SWAP1 POP JUMP JUMPDEST PUSH1 0x0 DUP1 PUSH1 0x40 DUP4 DUP6 SUB SLT ISZERO PUSH2 0x428 JUMPI PUSH1 0x0 DUP1 REVERT JUMPDEST PUSH2 0x431 DUP4 PUSH2 0x3AD JUMP JUMPDEST SWAP5 PUSH1 0x20 SWAP4 SWAP1 SWAP4 ADD CALLDATALOAD SWAP4 POP POP POP JUMP JUMPDEST PUSH1 0x0 PUSH1 0x0 NOT DUP3 EQ ISZERO PUSH2 0x461 JUMPI PUSH4 0x4E487B71 PUSH1 0xE0 SHL PUSH1 0x0 MSTORE PUSH1 0x11 PUSH1 0x4 MSTORE PUSH1 0x24 PUSH1 0x0 REVERT JUMPDEST POP PUSH1 0x1 ADD SWAP1 JUMP INVALID LOG1 PUSH5 0x736F6C6343 STOP ADDMOD EXP STOP EXP "
        },
        "gasEstimates": {
          "creation": {
            "codeDepositCost": "228200",
            "executionCost": "infinite",
            "totalCost": "infinite"
          },
          "external": {
            "admin()": "2359",
            "burn(address,uint256)": "infinite",
            "mint(address,uint256,uint256)": "infinite",
            "nonce()": "2295",
            "processedNonces(uint256)": "2462",
            "token()": "2381"
          }
        },
        "methodIdentifiers": {
          "admin()": "f851a440",
          "burn(address,uint256)": "9dc29fac",
          "mint(address,uint256,uint256)": "156e29f6",
          "nonce()": "affed0e0",
          "processedNonces(uint256)": "91dae519",
          "token()": "fc0c546a"
        }
      },
      "storageLayout": {
        "storage": [
          {
            "astId": 718,
            "contract": "contracts/BridgeBase.sol:BridgeBase",
            "label": "admin",
            "offset": 0,
            "slot": "0",
            "type": "t_address"
          },
          {
            "astId": 721,
            "contract": "contracts/BridgeBase.sol:BridgeBase",
            "label": "token",
            "offset": 0,
            "slot": "1",
            "type": "t_contract(IToken)893"
          },
          {
            "astId": 723,
            "contract": "contracts/BridgeBase.sol:BridgeBase",
            "label": "nonce",
            "offset": 0,
            "slot": "2",
            "type": "t_uint256"
          },
          {
            "astId": 727,
            "contract": "contracts/BridgeBase.sol:BridgeBase",
            "label": "processedNonces",
            "offset": 0,
            "slot": "3",
            "type": "t_mapping(t_uint256,t_bool)"
          }
        ],
        "types": {
          "t_address": {
            "encoding": "inplace",
            "label": "address",
            "numberOfBytes": "20"
          },
          "t_bool": {
            "encoding": "inplace",
            "label": "bool",
            "numberOfBytes": "1"
          },
          "t_contract(IToken)893": {
            "encoding": "inplace",
            "label": "contract IToken",
            "numberOfBytes": "20"
          },
          "t_mapping(t_uint256,t_bool)": {
            "encoding": "mapping",
            "key": "t_uint256",
            "label": "mapping(uint256 => bool)",
            "numberOfBytes": "32",
            "value": "t_bool"
          },
          "t_uint256": {
            "encoding": "inplace",
            "label": "uint256",
            "numberOfBytes": "32"
          }
        }
      },
      "userdoc": {
        "kind": "user",
        "methods": {},
        "version": 1
      }
    }
  }
}